{
  "_format": "hh-sol-artifact-1",
  "contractName": "TokenizedBallot",
  "sourceName": "contracts/TokenizedBallot.sol",
  "abi": [
    {
      "inputs": [
        {
          "internalType": "bytes32[]",
          "name": "proposalNames",
          "type": "bytes32[]"
        },
        {
          "internalType": "address",
          "name": "_tokenContract",
          "type": "address"
        },
        {
          "internalType": "uint256",
          "name": "_targetBlockNumber",
          "type": "uint256"
        }
      ],
      "stateMutability": "nonpayable",
      "type": "constructor"
    },
    {
      "anonymous": false,
      "inputs": [
        {
          "indexed": true,
          "internalType": "address",
          "name": "voter",
          "type": "address"
        },
        {
          "indexed": false,
          "internalType": "uint256",
          "name": "proposal",
          "type": "uint256"
        },
        {
          "indexed": false,
          "internalType": "uint256",
          "name": "amount",
          "type": "uint256"
        }
      ],
      "name": "Voted",
      "type": "event"
    },
    {
      "inputs": [],
      "name": "chairperson",
      "outputs": [
        {
          "internalType": "address",
          "name": "",
          "type": "address"
        }
      ],
      "stateMutability": "view",
      "type": "function"
    },
    {
      "inputs": [
        {
          "internalType": "uint256",
          "name": "",
          "type": "uint256"
        }
      ],
      "name": "proposals",
      "outputs": [
        {
          "internalType": "bytes32",
          "name": "name",
          "type": "bytes32"
        },
        {
          "internalType": "uint256",
          "name": "voteCount",
          "type": "uint256"
        }
      ],
      "stateMutability": "view",
      "type": "function"
    },
    {
      "inputs": [],
      "name": "updateVoterBalance",
      "outputs": [],
      "stateMutability": "nonpayable",
      "type": "function"
    },
    {
      "inputs": [
        {
          "internalType": "uint256",
          "name": "proposal",
          "type": "uint256"
        },
        {
          "internalType": "uint256",
          "name": "amount",
          "type": "uint256"
        }
      ],
      "name": "vote",
      "outputs": [],
      "stateMutability": "nonpayable",
      "type": "function"
    },
    {
      "inputs": [
        {
          "internalType": "address",
          "name": "",
          "type": "address"
        }
      ],
      "name": "voterBalances",
      "outputs": [
        {
          "internalType": "uint256",
          "name": "",
          "type": "uint256"
        }
      ],
      "stateMutability": "view",
      "type": "function"
    },
    {
      "inputs": [
        {
          "internalType": "address",
          "name": "account",
          "type": "address"
        }
      ],
      "name": "votingPower",
      "outputs": [
        {
          "internalType": "uint256",
          "name": "",
          "type": "uint256"
        }
      ],
      "stateMutability": "view",
      "type": "function"
    },
    {
      "inputs": [
        {
          "internalType": "address",
          "name": "",
          "type": "address"
        }
      ],
      "name": "votingPowerSpent",
      "outputs": [
        {
          "internalType": "uint256",
          "name": "",
          "type": "uint256"
        }
      ],
      "stateMutability": "view",
      "type": "function"
    },
    {
      "inputs": [],
      "name": "winnerName",
      "outputs": [
        {
          "internalType": "bytes32",
          "name": "winnerName_",
          "type": "bytes32"
        }
      ],
      "stateMutability": "view",
      "type": "function"
    },
    {
      "inputs": [],
      "name": "winningProposal",
      "outputs": [
        {
          "internalType": "uint256",
          "name": "winningProposal_",
          "type": "uint256"
        }
      ],
      "stateMutability": "view",
      "type": "function"
    }
  ],
  "bytecode": "0x60806040523480156200001157600080fd5b506040516200133938038062001339833981810160405281019062000037919062000383565b816000806101000a81548173ffffffffffffffffffffffffffffffffffffffff021916908373ffffffffffffffffffffffffffffffffffffffff1602179055508060058190555060005b8351811015620001155760046040518060400160405280868481518110620000ae57620000ad620003fe565b5b60200260200101518152602001600081525090806001815401808255809150506001900390600052602060002090600202016000909190919091506000820151816000015560208201518160010155505080806200010c906200045c565b91505062000081565b50505050620004a9565b6000604051905090565b600080fd5b600080fd5b600080fd5b6000601f19601f8301169050919050565b7f4e487b7100000000000000000000000000000000000000000000000000000000600052604160045260246000fd5b620001838262000138565b810181811067ffffffffffffffff82111715620001a557620001a462000149565b5b80604052505050565b6000620001ba6200011f565b9050620001c8828262000178565b919050565b600067ffffffffffffffff821115620001eb57620001ea62000149565b5b602082029050602081019050919050565b600080fd5b6000819050919050565b620002168162000201565b81146200022257600080fd5b50565b60008151905062000236816200020b565b92915050565b6000620002536200024d84620001cd565b620001ae565b90508083825260208201905060208402830185811115620002795762000278620001fc565b5b835b81811015620002a6578062000291888262000225565b8452602084019350506020810190506200027b565b5050509392505050565b600082601f830112620002c857620002c762000133565b5b8151620002da8482602086016200023c565b91505092915050565b600073ffffffffffffffffffffffffffffffffffffffff82169050919050565b60006200031082620002e3565b9050919050565b620003228162000303565b81146200032e57600080fd5b50565b600081519050620003428162000317565b92915050565b6000819050919050565b6200035d8162000348565b81146200036957600080fd5b50565b6000815190506200037d8162000352565b92915050565b6000806000606084860312156200039f576200039e62000129565b5b600084015167ffffffffffffffff811115620003c057620003bf6200012e565b5b620003ce86828701620002b0565b9350506020620003e18682870162000331565b9250506040620003f4868287016200036c565b9150509250925092565b7f4e487b7100000000000000000000000000000000000000000000000000000000600052603260045260246000fd5b7f4e487b7100000000000000000000000000000000000000000000000000000000600052601160045260246000fd5b6000620004698262000348565b91507fffffffffffffffffffffffffffffffffffffffffffffffffffffffffffffffff82036200049e576200049d6200042d565b5b600182019050919050565b610e8080620004b96000396000f3fe608060405234801561001057600080fd5b50600436106100935760003560e01c8063609ff1bd11610066578063609ff1bd14610121578063a72003511461013f578063b384abef1461016f578063c07473f61461018b578063e2ba53f0146101bb57610093565b8063013cf08b1461009857806301d215bf146100c957806323a6e668146100f95780632e4176cf14610103575b600080fd5b6100b260048036038101906100ad9190610707565b6101d9565b6040516100c092919061075c565b60405180910390f35b6100e360048036038101906100de91906107e3565b61020d565b6040516100f09190610810565b60405180910390f35b610101610225565b005b61010b610273565b604051610118919061083a565b60405180910390f35b610129610299565b6040516101369190610810565b60405180910390f35b610159600480360381019061015491906107e3565b610321565b6040516101669190610810565b60405180910390f35b61018960048036038101906101849190610855565b610339565b005b6101a560048036038101906101a091906107e3565b610539565b6040516101b29190610810565b60405180910390f35b6101c3610698565b6040516101d09190610895565b60405180910390f35b600481815481106101e957600080fd5b90600052602060002090600202016000915090508060000154908060010154905082565b60026020528060005260406000206000915090505481565b61022e33610539565b600260003373ffffffffffffffffffffffffffffffffffffffff1673ffffffffffffffffffffffffffffffffffffffff16815260200190815260200160002081905550565b600360009054906101000a900473ffffffffffffffffffffffffffffffffffffffff1681565b6000806000905060005b60048054905081101561031c5781600482815481106102c5576102c46108b0565b5b906000526020600020906002020160010154111561030957600481815481106102f1576102f06108b0565b5b90600052602060002090600202016001015491508092505b80806103149061090e565b9150506102a3565b505090565b60016020528060005260406000206000915090505481565b6004805490508210610380576040517f08c379a0000000000000000000000000000000000000000000000000000000008152600401610377906109b3565b60405180910390fd5b807fffffffffffffffffffffffffffffffffffffffffffffffffffffffffffffffff6103ac9190610a02565b8111156103ee576040517f08c379a00000000000000000000000000000000000000000000000000000000081526004016103e590610aa5565b60405180910390fd5b60006002826103fd9190610c05565b90508061040933610539565b101561044a576040517f08c379a000000000000000000000000000000000000000000000000000000000815260040161044190610cc2565b60405180910390fd5b80600160003373ffffffffffffffffffffffffffffffffffffffff1673ffffffffffffffffffffffffffffffffffffffff16815260200190815260200160002060008282546104999190610ce2565b9250508190555081600484815481106104b5576104b46108b0565b5b906000526020600020906002020160010160008282546104d59190610ce2565b925050819055506104e4610225565b3373ffffffffffffffffffffffffffffffffffffffff167fea66f58e474bc09f580000e81f31b334d171db387d0c6098ba47bd897741679b848460405161052c929190610d16565b60405180910390a2505050565b60008073ffffffffffffffffffffffffffffffffffffffff168273ffffffffffffffffffffffffffffffffffffffff16036105a9576040517f08c379a00000000000000000000000000000000000000000000000000000000081526004016105a090610d8b565b60405180910390fd5b600160008373ffffffffffffffffffffffffffffffffffffffff1673ffffffffffffffffffffffffffffffffffffffff1681526020019081526020016000205460008054906101000a900473ffffffffffffffffffffffffffffffffffffffff1673ffffffffffffffffffffffffffffffffffffffff16633a46b1a8846005546040518363ffffffff1660e01b8152600401610646929190610dab565b602060405180830381865afa158015610663573d6000803e3d6000fd5b505050506040513d601f19601f820116820180604052508101906106879190610de9565b6106919190610e16565b9050919050565b600060046106a4610299565b815481106106b5576106b46108b0565b5b906000526020600020906002020160000154905090565b600080fd5b6000819050919050565b6106e4816106d1565b81146106ef57600080fd5b50565b600081359050610701816106db565b92915050565b60006020828403121561071d5761071c6106cc565b5b600061072b848285016106f2565b91505092915050565b6000819050919050565b61074781610734565b82525050565b610756816106d1565b82525050565b6000604082019050610771600083018561073e565b61077e602083018461074d565b9392505050565b600073ffffffffffffffffffffffffffffffffffffffff82169050919050565b60006107b082610785565b9050919050565b6107c0816107a5565b81146107cb57600080fd5b50565b6000813590506107dd816107b7565b92915050565b6000602082840312156107f9576107f86106cc565b5b6000610807848285016107ce565b91505092915050565b6000602082019050610825600083018461074d565b92915050565b610834816107a5565b82525050565b600060208201905061084f600083018461082b565b92915050565b6000806040838503121561086c5761086b6106cc565b5b600061087a858286016106f2565b925050602061088b858286016106f2565b9150509250929050565b60006020820190506108aa600083018461073e565b92915050565b7f4e487b7100000000000000000000000000000000000000000000000000000000600052603260045260246000fd5b7f4e487b7100000000000000000000000000000000000000000000000000000000600052601160045260246000fd5b6000610919826106d1565b91507fffffffffffffffffffffffffffffffffffffffffffffffffffffffffffffffff820361094b5761094a6108df565b5b600182019050919050565b600082825260208201905092915050565b7f496e76616c69642070726f706f73616c20696e64657800000000000000000000600082015250565b600061099d601683610956565b91506109a882610967565b602082019050919050565b600060208201905081810360008301526109cc81610990565b9050919050565b7f4e487b7100000000000000000000000000000000000000000000000000000000600052601260045260246000fd5b6000610a0d826106d1565b9150610a18836106d1565b925082610a2857610a276109d3565b5b828204905092915050565b7f546f6b656e697a656442616c6c6f743a20616d6f756e7420746f6f206c61726760008201527f6500000000000000000000000000000000000000000000000000000000000000602082015250565b6000610a8f602183610956565b9150610a9a82610a33565b604082019050919050565b60006020820190508181036000830152610abe81610a82565b9050919050565b60008160011c9050919050565b6000808291508390505b6001851115610b1c57808604811115610af857610af76108df565b5b6001851615610b075780820291505b8081029050610b1585610ac5565b9450610adc565b94509492505050565b600082610b355760019050610bf1565b81610b435760009050610bf1565b8160018114610b595760028114610b6357610b92565b6001915050610bf1565b60ff841115610b7557610b746108df565b5b8360020a915084821115610b8c57610b8b6108df565b5b50610bf1565b5060208310610133831016604e8410600b8410161715610bc75782820a905083811115610bc257610bc16108df565b5b610bf1565b610bd48484846001610ad2565b92509050818404811115610beb57610bea6108df565b5b81810290505b9392505050565b600060ff82169050919050565b6000610c10826106d1565b9150610c1b83610bf8565b9250610c487fffffffffffffffffffffffffffffffffffffffffffffffffffffffffffffffff8484610b25565b905092915050565b7f546f6b656e697a656442616c6c6f743a20747279696e6720746f20766f74652060008201527f6d6f7265207468616e20616c6c6f776564000000000000000000000000000000602082015250565b6000610cac603183610956565b9150610cb782610c50565b604082019050919050565b60006020820190508181036000830152610cdb81610c9f565b9050919050565b6000610ced826106d1565b9150610cf8836106d1565b9250828201905080821115610d1057610d0f6108df565b5b92915050565b6000604082019050610d2b600083018561074d565b610d38602083018461074d565b9392505050565b7f496e76616c696420616464726573730000000000000000000000000000000000600082015250565b6000610d75600f83610956565b9150610d8082610d3f565b602082019050919050565b60006020820190508181036000830152610da481610d68565b9050919050565b6000604082019050610dc0600083018561082b565b610dcd602083018461074d565b9392505050565b600081519050610de3816106db565b92915050565b600060208284031215610dff57610dfe6106cc565b5b6000610e0d84828501610dd4565b91505092915050565b6000610e21826106d1565b9150610e2c836106d1565b9250828203905081811115610e4457610e436108df565b5b9291505056fea2646970667358221220baf6e6ba3e66d1eb2f2d1c22eca95d10af15c34ac95cd3d62e011e457dd70aa064736f6c63430008130033",
  "linkReferences": {},
  "deployedLinkReferences": {}
}